{
    "_format": "hh-sol-artifact-1",
    "contractName": "Lock",
    "sourceName": "contracts/Lock.sol",
    "abi": [
        {
            "inputs": [],
            "stateMutability": "nonpayable",
            "type": "constructor"
        },
        {
            "inputs": [
                {
                    "internalType": "address",
                    "name": "sender",
                    "type": "address"
                },
                {
                    "internalType": "uint256",
                    "name": "tokenId",
                    "type": "uint256"
                },
                {
                    "internalType": "address",
                    "name": "owner",
                    "type": "address"
                }
            ],
            "name": "ERC721IncorrectOwner",
            "type": "error"
        },
        {
            "inputs": [
                {
                    "internalType": "address",
                    "name": "operator",
                    "type": "address"
                },
                {
                    "internalType": "uint256",
                    "name": "tokenId",
                    "type": "uint256"
                }
            ],
            "name": "ERC721InsufficientApproval",
            "type": "error"
        },
        {
            "inputs": [
                {
                    "internalType": "address",
                    "name": "approver",
                    "type": "address"
                }
            ],
            "name": "ERC721InvalidApprover",
            "type": "error"
        },
        {
            "inputs": [
                {
                    "internalType": "address",
                    "name": "operator",
                    "type": "address"
                }
            ],
            "name": "ERC721InvalidOperator",
            "type": "error"
        },
        {
            "inputs": [
                {
                    "internalType": "address",
                    "name": "owner",
                    "type": "address"
                }
            ],
            "name": "ERC721InvalidOwner",
            "type": "error"
        },
        {
            "inputs": [
                {
                    "internalType": "address",
                    "name": "receiver",
                    "type": "address"
                }
            ],
            "name": "ERC721InvalidReceiver",
            "type": "error"
        },
        {
            "inputs": [
                {
                    "internalType": "address",
                    "name": "sender",
                    "type": "address"
                }
            ],
            "name": "ERC721InvalidSender",
            "type": "error"
        },
        {
            "inputs": [
                {
                    "internalType": "uint256",
                    "name": "tokenId",
                    "type": "uint256"
                }
            ],
            "name": "ERC721NonexistentToken",
            "type": "error"
        },
        {
            "anonymous": false,
            "inputs": [
                {
                    "indexed": true,
                    "internalType": "address",
                    "name": "owner",
                    "type": "address"
                },
                {
                    "indexed": true,
                    "internalType": "address",
                    "name": "approved",
                    "type": "address"
                },
                {
                    "indexed": true,
                    "internalType": "uint256",
                    "name": "tokenId",
                    "type": "uint256"
                }
            ],
            "name": "Approval",
            "type": "event"
        },
        {
            "anonymous": false,
            "inputs": [
                {
                    "indexed": true,
                    "internalType": "address",
                    "name": "owner",
                    "type": "address"
                },
                {
                    "indexed": true,
                    "internalType": "address",
                    "name": "operator",
                    "type": "address"
                },
                {
                    "indexed": false,
                    "internalType": "bool",
                    "name": "approved",
                    "type": "bool"
                }
            ],
            "name": "ApprovalForAll",
            "type": "event"
        },
        {
            "anonymous": false,
            "inputs": [
                {
                    "indexed": false,
                    "internalType": "uint256",
                    "name": "_fromTokenId",
                    "type": "uint256"
                },
                {
                    "indexed": false,
                    "internalType": "uint256",
                    "name": "_toTokenId",
                    "type": "uint256"
                }
            ],
            "name": "BatchMetadataUpdate",
            "type": "event"
        },
        {
            "anonymous": false,
            "inputs": [
                {
                    "indexed": false,
                    "internalType": "uint256",
                    "name": "_tokenId",
                    "type": "uint256"
                }
            ],
            "name": "MetadataUpdate",
            "type": "event"
        },
        {
            "anonymous": false,
            "inputs": [
                {
                    "indexed": false,
                    "internalType": "uint256",
                    "name": "tokenId",
                    "type": "uint256"
                },
                {
                    "indexed": false,
                    "internalType": "address",
                    "name": "owner",
                    "type": "address"
                },
                {
                    "indexed": false,
                    "internalType": "string",
                    "name": "tokenURI",
                    "type": "string"
                }
            ],
            "name": "TokenMinted",
            "type": "event"
        },
        {
            "anonymous": false,
            "inputs": [
                {
                    "indexed": true,
                    "internalType": "address",
                    "name": "from",
                    "type": "address"
                },
                {
                    "indexed": true,
                    "internalType": "address",
                    "name": "to",
                    "type": "address"
                },
                {
                    "indexed": true,
                    "internalType": "uint256",
                    "name": "tokenId",
                    "type": "uint256"
                }
            ],
            "name": "Transfer",
            "type": "event"
        },
        {
            "inputs": [
                {
                    "internalType": "address",
                    "name": "to",
                    "type": "address"
                },
                {
                    "internalType": "uint256",
                    "name": "tokenId",
                    "type": "uint256"
                }
            ],
            "name": "approve",
            "outputs": [],
            "stateMutability": "nonpayable",
            "type": "function"
        },
        {
            "inputs": [
                {
                    "internalType": "address",
                    "name": "owner",
                    "type": "address"
                }
            ],
            "name": "balanceOf",
            "outputs": [
                {
                    "internalType": "uint256",
                    "name": "",
                    "type": "uint256"
                }
            ],
            "stateMutability": "view",
            "type": "function"
        },
        {
            "inputs": [
                {
                    "internalType": "uint256",
                    "name": "tokenId",
                    "type": "uint256"
                }
            ],
            "name": "getApproved",
            "outputs": [
                {
                    "internalType": "address",
                    "name": "",
                    "type": "address"
                }
            ],
            "stateMutability": "view",
            "type": "function"
        },
        {
            "inputs": [
                {
                    "internalType": "address",
                    "name": "owner",
                    "type": "address"
                },
                {
                    "internalType": "address",
                    "name": "operator",
                    "type": "address"
                }
            ],
            "name": "isApprovedForAll",
            "outputs": [
                {
                    "internalType": "bool",
                    "name": "",
                    "type": "bool"
                }
            ],
            "stateMutability": "view",
            "type": "function"
        },
        {
            "inputs": [
                {
                    "internalType": "string",
                    "name": "tokenURI",
                    "type": "string"
                }
            ],
            "name": "mintNFT",
            "outputs": [],
            "stateMutability": "nonpayable",
            "type": "function"
        },
        {
            "inputs": [],
            "name": "name",
            "outputs": [
                {
                    "internalType": "string",
                    "name": "",
                    "type": "string"
                }
            ],
            "stateMutability": "view",
            "type": "function"
        },
        {
            "inputs": [
                {
                    "internalType": "uint256",
                    "name": "tokenId",
                    "type": "uint256"
                }
            ],
            "name": "ownerOf",
            "outputs": [
                {
                    "internalType": "address",
                    "name": "",
                    "type": "address"
                }
            ],
            "stateMutability": "view",
            "type": "function"
        },
        {
            "inputs": [
                {
                    "internalType": "address",
                    "name": "from",
                    "type": "address"
                },
                {
                    "internalType": "address",
                    "name": "to",
                    "type": "address"
                },
                {
                    "internalType": "uint256",
                    "name": "tokenId",
                    "type": "uint256"
                }
            ],
            "name": "safeTransferFrom",
            "outputs": [],
            "stateMutability": "nonpayable",
            "type": "function"
        },
        {
            "inputs": [
                {
                    "internalType": "address",
                    "name": "from",
                    "type": "address"
                },
                {
                    "internalType": "address",
                    "name": "to",
                    "type": "address"
                },
                {
                    "internalType": "uint256",
                    "name": "tokenId",
                    "type": "uint256"
                },
                {
                    "internalType": "bytes",
                    "name": "data",
                    "type": "bytes"
                }
            ],
            "name": "safeTransferFrom",
            "outputs": [],
            "stateMutability": "nonpayable",
            "type": "function"
        },
        {
            "inputs": [
                {
                    "internalType": "address",
                    "name": "operator",
                    "type": "address"
                },
                {
                    "internalType": "bool",
                    "name": "approved",
                    "type": "bool"
                }
            ],
            "name": "setApprovalForAll",
            "outputs": [],
            "stateMutability": "nonpayable",
            "type": "function"
        },
        {
            "inputs": [
                {
                    "internalType": "bytes4",
                    "name": "interfaceId",
                    "type": "bytes4"
                }
            ],
            "name": "supportsInterface",
            "outputs": [
                {
                    "internalType": "bool",
                    "name": "",
                    "type": "bool"
                }
            ],
            "stateMutability": "view",
            "type": "function"
        },
        {
            "inputs": [],
            "name": "symbol",
            "outputs": [
                {
                    "internalType": "string",
                    "name": "",
                    "type": "string"
                }
            ],
            "stateMutability": "view",
            "type": "function"
        },
        {
            "inputs": [],
            "name": "tokenCounter",
            "outputs": [
                {
                    "internalType": "uint256",
                    "name": "",
                    "type": "uint256"
                }
            ],
            "stateMutability": "view",
            "type": "function"
        },
        {
            "inputs": [
                {
                    "internalType": "uint256",
                    "name": "tokenId",
                    "type": "uint256"
                }
            ],
            "name": "tokenURI",
            "outputs": [
                {
                    "internalType": "string",
                    "name": "",
                    "type": "string"
                }
            ],
            "stateMutability": "view",
            "type": "function"
        },
        {
            "inputs": [
                {
                    "internalType": "address",
                    "name": "from",
                    "type": "address"
                },
                {
                    "internalType": "address",
                    "name": "to",
                    "type": "address"
                },
                {
                    "internalType": "uint256",
                    "name": "tokenId",
                    "type": "uint256"
                }
            ],
            "name": "transferFrom",
            "outputs": [],
            "stateMutability": "nonpayable",
            "type": "function"
        }
    ],
    "bytecode": "0x608060405234801561001057600080fd5b506040518060400160405280600781526020017f4c6f636b4e4654000000000000000000000000000000000000000000000000008152506040518060400160405280600481526020017f4c4e465400000000000000000000000000000000000000000000000000000000815250816000908161008c91906102fc565b50806001908161009c91906102fc565b50505060006007819055506103ce565b600081519050919050565b7f4e487b7100000000000000000000000000000000000000000000000000000000600052604160045260246000fd5b7f4e487b7100000000000000000000000000000000000000000000000000000000600052602260045260246000fd5b6000600282049050600182168061012d57607f821691505b6020821081036101405761013f6100e6565b5b50919050565b60008190508160005260206000209050919050565b60006020601f8301049050919050565b600082821b905092915050565b6000600883026101a87fffffffffffffffffffffffffffffffffffffffffffffffffffffffffffffffff8261016b565b6101b2868361016b565b95508019841693508086168417925050509392505050565b6000819050919050565b6000819050919050565b60006101f96101f46101ef846101ca565b6101d4565b6101ca565b9050919050565b6000819050919050565b610213836101de565b61022761021f82610200565b848454610178565b825550505050565b600090565b61023c61022f565b61024781848461020a565b505050565b5b8181101561026b57610260600082610234565b60018101905061024d565b5050565b601f8211156102b05761028181610146565b61028a8461015b565b81016020851015610299578190505b6102ad6102a58561015b565b83018261024c565b50505b505050565b600082821c905092915050565b60006102d3600019846008026102b5565b1980831691505092915050565b60006102ec83836102c2565b9150826002028217905092915050565b610305826100ac565b67ffffffffffffffff81111561031e5761031d6100b7565b5b6103288254610115565b61033382828561026f565b600060209050601f8311600181146103665760008415610354578287015190505b61035e85826102e0565b8655506103c6565b601f19841661037486610146565b60005b8281101561039c57848901518255600182019150602085019450602081019050610377565b868310156103b957848901516103b5601f8916826102c2565b8355505b6001600288020188555050505b505050505050565b61243c806103dd6000396000f3fe608060405234801561001057600080fd5b50600436106100f55760003560e01c806370a0823111610097578063c87b56dd11610066578063c87b56dd14610282578063d082e381146102b2578063d85d3d27146102d0578063e985e9c5146102ec576100f5565b806370a08231146101fc57806395d89b411461022c578063a22cb4651461024a578063b88d4fde14610266576100f5565b8063095ea7b3116100d3578063095ea7b31461017857806323b872dd1461019457806342842e0e146101b05780636352211e146101cc576100f5565b806301ffc9a7146100fa57806306fdde031461012a578063081812fc14610148575b600080fd5b610114600480360381019061010f9190611869565b61031c565b60405161012191906118b1565b60405180910390f35b61013261037d565b60405161013f919061195c565b60405180910390f35b610162600480360381019061015d91906119b4565b61040f565b60405161016f9190611a22565b60405180910390f35b610192600480360381019061018d9190611a69565b61042b565b005b6101ae60048036038101906101a99190611aa9565b610441565b005b6101ca60048036038101906101c59190611aa9565b610543565b005b6101e660048036038101906101e191906119b4565b610563565b6040516101f39190611a22565b60405180910390f35b61021660048036038101906102119190611afc565b610575565b6040516102239190611b38565b60405180910390f35b61023461062f565b604051610241919061195c565b60405180910390f35b610264600480360381019061025f9190611b7f565b6106c1565b005b610280600480360381019061027b9190611cf4565b6106d7565b005b61029c600480360381019061029791906119b4565b6106fc565b6040516102a9919061195c565b60405180910390f35b6102ba61080f565b6040516102c79190611b38565b60405180910390f35b6102ea60048036038101906102e59190611e18565b610815565b005b61030660048036038101906103019190611e61565b610887565b60405161031391906118b1565b60405180910390f35b6000634906490660e01b7bffffffffffffffffffffffffffffffffffffffffffffffffffffffff1916827bffffffffffffffffffffffffffffffffffffffffffffffffffffffff1916148061037657506103758261091b565b5b9050919050565b60606000805461038c90611ed0565b80601f01602080910402602001604051908101604052809291908181526020018280546103b890611ed0565b80156104055780601f106103da57610100808354040283529160200191610405565b820191906000526020600020905b8154815290600101906020018083116103e857829003601f168201915b5050505050905090565b600061041a826109fd565b5061042482610a85565b9050919050565b61043d8282610438610ac2565b610aca565b5050565b600073ffffffffffffffffffffffffffffffffffffffff168273ffffffffffffffffffffffffffffffffffffffff16036104b35760006040517f64a0ae920000000000000000000000000000000000000000000000000000000081526004016104aa9190611a22565b60405180910390fd5b60006104c783836104c2610ac2565b610adc565b90508373ffffffffffffffffffffffffffffffffffffffff168173ffffffffffffffffffffffffffffffffffffffff161461053d578382826040517f64283d7b00000000000000000000000000000000000000000000000000000000815260040161053493929190611f01565b60405180910390fd5b50505050565b61055e838383604051806020016040528060008152506106d7565b505050565b600061056e826109fd565b9050919050565b60008073ffffffffffffffffffffffffffffffffffffffff168273ffffffffffffffffffffffffffffffffffffffff16036105e85760006040517f89c62b640000000000000000000000000000000000000000000000000000000081526004016105df9190611a22565b60405180910390fd5b600360008373ffffffffffffffffffffffffffffffffffffffff1673ffffffffffffffffffffffffffffffffffffffff168152602001908152602001600020549050919050565b60606001805461063e90611ed0565b80601f016020809104026020016040519081016040528092919081815260200182805461066a90611ed0565b80156106b75780601f1061068c576101008083540402835291602001916106b7565b820191906000526020600020905b81548152906001019060200180831161069a57829003601f168201915b5050505050905090565b6106d36106cc610ac2565b8383610cf6565b5050565b6106e2848484610441565b6106f66106ed610ac2565b85858585610e65565b50505050565b6060610707826109fd565b50600060066000848152602001908152602001600020805461072890611ed0565b80601f016020809104026020016040519081016040528092919081815260200182805461075490611ed0565b80156107a15780601f10610776576101008083540402835291602001916107a1565b820191906000526020600020905b81548152906001019060200180831161078457829003601f168201915b5050505050905060006107b2611016565b905060008151036107c757819250505061080a565b6000825111156107fc5780826040516020016107e4929190611f74565b6040516020818303038152906040529250505061080a565b6108058461102d565b925050505b919050565b60075481565b600060075490506108263382611096565b610830818361118f565b6007600081548092919061084390611fc7565b91905055507fec2cd236ed6d37bf5a71276ac93889db12834493a090efd543a3d2eca8dcdcc881338460405161087b9392919061200f565b60405180910390a15050565b6000600560008473ffffffffffffffffffffffffffffffffffffffff1673ffffffffffffffffffffffffffffffffffffffff16815260200190815260200160002060008373ffffffffffffffffffffffffffffffffffffffff1673ffffffffffffffffffffffffffffffffffffffff16815260200190815260200160002060009054906101000a900460ff16905092915050565b60007f80ac58cd000000000000000000000000000000000000000000000000000000007bffffffffffffffffffffffffffffffffffffffffffffffffffffffff1916827bffffffffffffffffffffffffffffffffffffffffffffffffffffffff191614806109e657507f5b5e139f000000000000000000000000000000000000000000000000000000007bffffffffffffffffffffffffffffffffffffffffffffffffffffffff1916827bffffffffffffffffffffffffffffffffffffffffffffffffffffffff1916145b806109f657506109f5826111eb565b5b9050919050565b600080610a0983611255565b9050600073ffffffffffffffffffffffffffffffffffffffff168173ffffffffffffffffffffffffffffffffffffffff1603610a7c57826040517f7e273289000000000000000000000000000000000000000000000000000000008152600401610a739190611b38565b60405180910390fd5b80915050919050565b60006004600083815260200190815260200160002060009054906101000a900473ffffffffffffffffffffffffffffffffffffffff169050919050565b600033905090565b610ad78383836001611292565b505050565b600080610ae884611255565b9050600073ffffffffffffffffffffffffffffffffffffffff168373ffffffffffffffffffffffffffffffffffffffff1614610b2a57610b29818486611457565b5b600073ffffffffffffffffffffffffffffffffffffffff168173ffffffffffffffffffffffffffffffffffffffff1614610bbb57610b6c600085600080611292565b6001600360008373ffffffffffffffffffffffffffffffffffffffff1673ffffffffffffffffffffffffffffffffffffffff168152602001908152602001600020600082825403925050819055505b600073ffffffffffffffffffffffffffffffffffffffff168573ffffffffffffffffffffffffffffffffffffffff1614610c3e576001600360008773ffffffffffffffffffffffffffffffffffffffff1673ffffffffffffffffffffffffffffffffffffffff168152602001908152602001600020600082825401925050819055505b846002600086815260200190815260200160002060006101000a81548173ffffffffffffffffffffffffffffffffffffffff021916908373ffffffffffffffffffffffffffffffffffffffff160217905550838573ffffffffffffffffffffffffffffffffffffffff168273ffffffffffffffffffffffffffffffffffffffff167fddf252ad1be2c89b69c2b068fc378daa952ba7f163c4a11628f55a4df523b3ef60405160405180910390a4809150509392505050565b600073ffffffffffffffffffffffffffffffffffffffff168273ffffffffffffffffffffffffffffffffffffffff1603610d6757816040517f5b08ba18000000000000000000000000000000000000000000000000000000008152600401610d5e9190611a22565b60405180910390fd5b80600560008573ffffffffffffffffffffffffffffffffffffffff1673ffffffffffffffffffffffffffffffffffffffff16815260200190815260200160002060008473ffffffffffffffffffffffffffffffffffffffff1673ffffffffffffffffffffffffffffffffffffffff16815260200190815260200160002060006101000a81548160ff0219169083151502179055508173ffffffffffffffffffffffffffffffffffffffff168373ffffffffffffffffffffffffffffffffffffffff167f17307eab39ab6107e8899845ad3d59bd9653f200f220920489ca2b5937696c3183604051610e5891906118b1565b60405180910390a3505050565b60008373ffffffffffffffffffffffffffffffffffffffff163b111561100f578273ffffffffffffffffffffffffffffffffffffffff1663150b7a02868685856040518563ffffffff1660e01b8152600401610ec494939291906120a2565b6020604051808303816000875af1925050508015610f0057506040513d601f19601f82011682018060405250810190610efd9190612103565b60015b610f84573d8060008114610f30576040519150601f19603f3d011682016040523d82523d6000602084013e610f35565b606091505b506000815103610f7c57836040517f64a0ae92000000000000000000000000000000000000000000000000000000008152600401610f739190611a22565b60405180910390fd5b805181602001fd5b63150b7a0260e01b7bffffffffffffffffffffffffffffffffffffffffffffffffffffffff1916817bffffffffffffffffffffffffffffffffffffffffffffffffffffffff19161461100d57836040517f64a0ae920000000000000000000000000000000000000000000000000000000081526004016110049190611a22565b60405180910390fd5b505b5050505050565b606060405180602001604052806000815250905090565b6060611038826109fd565b506000611043611016565b90506000815111611063576040518060200160405280600081525061108e565b8061106d8461151b565b60405160200161107e929190611f74565b6040516020818303038152906040525b915050919050565b600073ffffffffffffffffffffffffffffffffffffffff168273ffffffffffffffffffffffffffffffffffffffff16036111085760006040517f64a0ae920000000000000000000000000000000000000000000000000000000081526004016110ff9190611a22565b60405180910390fd5b600061111683836000610adc565b9050600073ffffffffffffffffffffffffffffffffffffffff168173ffffffffffffffffffffffffffffffffffffffff161461118a5760006040517f73c6ac6e0000000000000000000000000000000000000000000000000000000081526004016111819190611a22565b60405180910390fd5b505050565b806006600084815260200190815260200160002090816111af91906122dc565b507ff8e1a15aba9398e019f0b49df1a4fde98ee17ae345cb5f6b5e2c27f5033e8ce7826040516111df9190611b38565b60405180910390a15050565b60007f01ffc9a7000000000000000000000000000000000000000000000000000000007bffffffffffffffffffffffffffffffffffffffffffffffffffffffff1916827bffffffffffffffffffffffffffffffffffffffffffffffffffffffff1916149050919050565b60006002600083815260200190815260200160002060009054906101000a900473ffffffffffffffffffffffffffffffffffffffff169050919050565b80806112cb5750600073ffffffffffffffffffffffffffffffffffffffff168273ffffffffffffffffffffffffffffffffffffffff1614155b156113ff5760006112db846109fd565b9050600073ffffffffffffffffffffffffffffffffffffffff168373ffffffffffffffffffffffffffffffffffffffff161415801561134657508273ffffffffffffffffffffffffffffffffffffffff168173ffffffffffffffffffffffffffffffffffffffff1614155b801561135957506113578184610887565b155b1561139b57826040517fa9fbf51f0000000000000000000000000000000000000000000000000000000081526004016113929190611a22565b60405180910390fd5b81156113fd57838573ffffffffffffffffffffffffffffffffffffffff168273ffffffffffffffffffffffffffffffffffffffff167f8c5be1e5ebec7d5bd14f71427d1e84f3dd0314c0f7b2291e5b200ac8c7c3b92560405160405180910390a45b505b836004600085815260200190815260200160002060006101000a81548173ffffffffffffffffffffffffffffffffffffffff021916908373ffffffffffffffffffffffffffffffffffffffff16021790555050505050565b6114628383836115e9565b61151657600073ffffffffffffffffffffffffffffffffffffffff168373ffffffffffffffffffffffffffffffffffffffff16036114d757806040517f7e2732890000000000000000000000000000000000000000000000000000000081526004016114ce9190611b38565b60405180910390fd5b81816040517f177e802f00000000000000000000000000000000000000000000000000000000815260040161150d9291906123ae565b60405180910390fd5b505050565b60606000600161152a846116aa565b01905060008167ffffffffffffffff81111561154957611548611bc9565b5b6040519080825280601f01601f19166020018201604052801561157b5781602001600182028036833780820191505090505b509050600082602001820190505b6001156115de578080600190039150507f3031323334353637383961626364656600000000000000000000000000000000600a86061a8153600a85816115d2576115d16123d7565b5b04945060008503611589575b819350505050919050565b60008073ffffffffffffffffffffffffffffffffffffffff168373ffffffffffffffffffffffffffffffffffffffff16141580156116a157508273ffffffffffffffffffffffffffffffffffffffff168473ffffffffffffffffffffffffffffffffffffffff16148061166257506116618484610887565b5b806116a057508273ffffffffffffffffffffffffffffffffffffffff1661168883610a85565b73ffffffffffffffffffffffffffffffffffffffff16145b5b90509392505050565b600080600090507a184f03e93ff9f4daa797ed6e38ed64bf6a1f0100000000000000008310611708577a184f03e93ff9f4daa797ed6e38ed64bf6a1f01000000000000000083816116fe576116fd6123d7565b5b0492506040810190505b6d04ee2d6d415b85acef81000000008310611745576d04ee2d6d415b85acef8100000000838161173b5761173a6123d7565b5b0492506020810190505b662386f26fc10000831061177457662386f26fc10000838161176a576117696123d7565b5b0492506010810190505b6305f5e100831061179d576305f5e1008381611793576117926123d7565b5b0492506008810190505b61271083106117c25761271083816117b8576117b76123d7565b5b0492506004810190505b606483106117e557606483816117db576117da6123d7565b5b0492506002810190505b600a83106117f4576001810190505b80915050919050565b6000604051905090565b600080fd5b600080fd5b60007fffffffff0000000000000000000000000000000000000000000000000000000082169050919050565b61184681611811565b811461185157600080fd5b50565b6000813590506118638161183d565b92915050565b60006020828403121561187f5761187e611807565b5b600061188d84828501611854565b91505092915050565b60008115159050919050565b6118ab81611896565b82525050565b60006020820190506118c660008301846118a2565b92915050565b600081519050919050565b600082825260208201905092915050565b60005b838110156119065780820151818401526020810190506118eb565b60008484015250505050565b6000601f19601f8301169050919050565b600061192e826118cc565b61193881856118d7565b93506119488185602086016118e8565b61195181611912565b840191505092915050565b600060208201905081810360008301526119768184611923565b905092915050565b6000819050919050565b6119918161197e565b811461199c57600080fd5b50565b6000813590506119ae81611988565b92915050565b6000602082840312156119ca576119c9611807565b5b60006119d88482850161199f565b91505092915050565b600073ffffffffffffffffffffffffffffffffffffffff82169050919050565b6000611a0c826119e1565b9050919050565b611a1c81611a01565b82525050565b6000602082019050611a376000830184611a13565b92915050565b611a4681611a01565b8114611a5157600080fd5b50565b600081359050611a6381611a3d565b92915050565b60008060408385031215611a8057611a7f611807565b5b6000611a8e85828601611a54565b9250506020611a9f8582860161199f565b9150509250929050565b600080600060608486031215611ac257611ac1611807565b5b6000611ad086828701611a54565b9350506020611ae186828701611a54565b9250506040611af28682870161199f565b9150509250925092565b600060208284031215611b1257611b11611807565b5b6000611b2084828501611a54565b91505092915050565b611b328161197e565b82525050565b6000602082019050611b4d6000830184611b29565b92915050565b611b5c81611896565b8114611b6757600080fd5b50565b600081359050611b7981611b53565b92915050565b60008060408385031215611b9657611b95611807565b5b6000611ba485828601611a54565b9250506020611bb585828601611b6a565b9150509250929050565b600080fd5b600080fd5b7f4e487b7100000000000000000000000000000000000000000000000000000000600052604160045260246000fd5b611c0182611912565b810181811067ffffffffffffffff82111715611c2057611c1f611bc9565b5b80604052505050565b6000611c336117fd565b9050611c3f8282611bf8565b919050565b600067ffffffffffffffff821115611c5f57611c5e611bc9565b5b611c6882611912565b9050602081019050919050565b82818337600083830152505050565b6000611c97611c9284611c44565b611c29565b905082815260208101848484011115611cb357611cb2611bc4565b5b611cbe848285611c75565b509392505050565b600082601f830112611cdb57611cda611bbf565b5b8135611ceb848260208601611c84565b91505092915050565b60008060008060808587031215611d0e57611d0d611807565b5b6000611d1c87828801611a54565b9450506020611d2d87828801611a54565b9350506040611d3e8782880161199f565b925050606085013567ffffffffffffffff811115611d5f57611d5e61180c565b5b611d6b87828801611cc6565b91505092959194509250565b600067ffffffffffffffff821115611d9257611d91611bc9565b5b611d9b82611912565b9050602081019050919050565b6000611dbb611db684611d77565b611c29565b905082815260208101848484011115611dd757611dd6611bc4565b5b611de2848285611c75565b509392505050565b600082601f830112611dff57611dfe611bbf565b5b8135611e0f848260208601611da8565b91505092915050565b600060208284031215611e2e57611e2d611807565b5b600082013567ffffffffffffffff811115611e4c57611e4b61180c565b5b611e5884828501611dea565b91505092915050565b60008060408385031215611e7857611e77611807565b5b6000611e8685828601611a54565b9250506020611e9785828601611a54565b9150509250929050565b7f4e487b7100000000000000000000000000000000000000000000000000000000600052602260045260246000fd5b60006002820490506001821680611ee857607f821691505b602082108103611efb57611efa611ea1565b5b50919050565b6000606082019050611f166000830186611a13565b611f236020830185611b29565b611f306040830184611a13565b949350505050565b600081905092915050565b6000611f4e826118cc565b611f588185611f38565b9350611f688185602086016118e8565b80840191505092915050565b6000611f808285611f43565b9150611f8c8284611f43565b91508190509392505050565b7f4e487b7100000000000000000000000000000000000000000000000000000000600052601160045260246000fd5b6000611fd28261197e565b91507fffffffffffffffffffffffffffffffffffffffffffffffffffffffffffffffff820361200457612003611f98565b5b600182019050919050565b60006060820190506120246000830186611b29565b6120316020830185611a13565b81810360408301526120438184611923565b9050949350505050565b600081519050919050565b600082825260208201905092915050565b60006120748261204d565b61207e8185612058565b935061208e8185602086016118e8565b61209781611912565b840191505092915050565b60006080820190506120b76000830187611a13565b6120c46020830186611a13565b6120d16040830185611b29565b81810360608301526120e38184612069565b905095945050505050565b6000815190506120fd8161183d565b92915050565b60006020828403121561211957612118611807565b5b6000612127848285016120ee565b91505092915050565b60008190508160005260206000209050919050565b60006020601f8301049050919050565b600082821b905092915050565b6000600883026121927fffffffffffffffffffffffffffffffffffffffffffffffffffffffffffffffff82612155565b61219c8683612155565b95508019841693508086168417925050509392505050565b6000819050919050565b60006121d96121d46121cf8461197e565b6121b4565b61197e565b9050919050565b6000819050919050565b6121f3836121be565b6122076121ff826121e0565b848454612162565b825550505050565b600090565b61221c61220f565b6122278184846121ea565b505050565b5b8181101561224b57612240600082612214565b60018101905061222d565b5050565b601f8211156122905761226181612130565b61226a84612145565b81016020851015612279578190505b61228d61228585612145565b83018261222c565b50505b505050565b600082821c905092915050565b60006122b360001984600802612295565b1980831691505092915050565b60006122cc83836122a2565b9150826002028217905092915050565b6122e5826118cc565b67ffffffffffffffff8111156122fe576122fd611bc9565b5b6123088254611ed0565b61231382828561224f565b600060209050601f8311600181146123465760008415612334578287015190505b61233e85826122c0565b8655506123a6565b601f19841661235486612130565b60005b8281101561237c57848901518255600182019150602085019450602081019050612357565b868310156123995784890151612395601f8916826122a2565b8355505b6001600288020188555050505b505050505050565b60006040820190506123c36000830185611a13565b6123d06020830184611b29565b9392505050565b7f4e487b7100000000000000000000000000000000000000000000000000000000600052601260045260246000fdfea26469706673582212208e633372fbf228295ab9f5eb53074b5c7d4b3ff56969d8d7da16a94d56cfeb9964736f6c634300081c0033",
    "linkReferences": {},
    "deployedLinkReferences": {}
}